{
  "contractName": "FashionVoting",
  "abi": [
    {
      "inputs": [],
      "stateMutability": "nonpayable",
      "type": "constructor"
    },
    {
      "anonymous": false,
      "inputs": [
        {
          "indexed": false,
          "internalType": "address",
          "name": "winner",
          "type": "address"
        },
        {
          "indexed": false,
          "internalType": "uint256",
          "name": "amount",
          "type": "uint256"
        }
      ],
      "name": "RewardSent",
      "type": "event"
    },
    {
      "anonymous": false,
      "inputs": [
        {
          "indexed": false,
          "internalType": "uint256",
          "name": "winnerIndex",
          "type": "uint256"
        },
        {
          "indexed": false,
          "internalType": "string",
          "name": "winnerName",
          "type": "string"
        }
      ],
      "name": "VotingClosed",
      "type": "event"
    },
    {
      "anonymous": false,
      "inputs": [],
      "name": "VotingReset",
      "type": "event"
    },
    {
      "inputs": [
        {
          "internalType": "address",
          "name": "",
          "type": "address"
        }
      ],
      "name": "hasVoted",
      "outputs": [
        {
          "internalType": "bool",
          "name": "",
          "type": "bool"
        }
      ],
      "stateMutability": "view",
      "type": "function",
      "constant": true
    },
    {
      "inputs": [],
      "name": "hasWinner",
      "outputs": [
        {
          "internalType": "bool",
          "name": "",
          "type": "bool"
        }
      ],
      "stateMutability": "view",
      "type": "function",
      "constant": true
    },
    {
      "inputs": [],
      "name": "owner",
      "outputs": [
        {
          "internalType": "address",
          "name": "",
          "type": "address"
        }
      ],
      "stateMutability": "view",
      "type": "function",
      "constant": true
    },
    {
      "inputs": [
        {
          "internalType": "uint256",
          "name": "",
          "type": "uint256"
        }
      ],
      "name": "participants",
      "outputs": [
        {
          "internalType": "string",
          "name": "name",
          "type": "string"
        },
        {
          "internalType": "string",
          "name": "style",
          "type": "string"
        },
        {
          "internalType": "string",
          "name": "location",
          "type": "string"
        },
        {
          "internalType": "uint256",
          "name": "age",
          "type": "uint256"
        },
        {
          "internalType": "uint256",
          "name": "voteCount",
          "type": "uint256"
        }
      ],
      "stateMutability": "view",
      "type": "function",
      "constant": true
    },
    {
      "inputs": [],
      "name": "votingClosed",
      "outputs": [
        {
          "internalType": "bool",
          "name": "",
          "type": "bool"
        }
      ],
      "stateMutability": "view",
      "type": "function",
      "constant": true
    },
    {
      "inputs": [],
      "name": "votingOpen",
      "outputs": [
        {
          "internalType": "bool",
          "name": "",
          "type": "bool"
        }
      ],
      "stateMutability": "view",
      "type": "function",
      "constant": true
    },
    {
      "inputs": [],
      "name": "winnerIndex",
      "outputs": [
        {
          "internalType": "uint256",
          "name": "",
          "type": "uint256"
        }
      ],
      "stateMutability": "view",
      "type": "function",
      "constant": true
    },
    {
      "stateMutability": "payable",
      "type": "receive",
      "payable": true
    },
    {
      "inputs": [
        {
          "internalType": "uint256",
          "name": "index",
          "type": "uint256"
        }
      ],
      "name": "getParticipant",
      "outputs": [
        {
          "internalType": "string",
          "name": "",
          "type": "string"
        },
        {
          "internalType": "string",
          "name": "",
          "type": "string"
        },
        {
          "internalType": "string",
          "name": "",
          "type": "string"
        },
        {
          "internalType": "uint256",
          "name": "",
          "type": "uint256"
        },
        {
          "internalType": "uint256",
          "name": "",
          "type": "uint256"
        }
      ],
      "stateMutability": "view",
      "type": "function",
      "constant": true
    },
    {
      "inputs": [],
      "name": "getTotalParticipants",
      "outputs": [
        {
          "internalType": "uint256",
          "name": "",
          "type": "uint256"
        }
      ],
      "stateMutability": "view",
      "type": "function",
      "constant": true
    },
    {
      "inputs": [
        {
          "internalType": "uint256",
          "name": "index",
          "type": "uint256"
        }
      ],
      "name": "vote",
      "outputs": [],
      "stateMutability": "payable",
      "type": "function",
      "payable": true
    },
    {
      "inputs": [
        {
          "internalType": "address payable",
          "name": "winnerAddress",
          "type": "address"
        }
      ],
      "name": "closeVotingAndSendReward",
      "outputs": [],
      "stateMutability": "payable",
      "type": "function",
      "payable": true
    },
    {
      "inputs": [],
      "name": "resetVoting",
      "outputs": [],
      "stateMutability": "nonpayable",
      "type": "function"
    },
    {
      "inputs": [],
      "name": "isVotingOpen",
      "outputs": [
        {
          "internalType": "bool",
          "name": "",
          "type": "bool"
        }
      ],
      "stateMutability": "view",
      "type": "function",
      "constant": true
    },
    {
      "inputs": [],
      "name": "isVotingClosed",
      "outputs": [
        {
          "internalType": "bool",
          "name": "",
          "type": "bool"
        }
      ],
      "stateMutability": "view",
      "type": "function",
      "constant": true
    },
    {
      "inputs": [],
      "name": "getWinner",
      "outputs": [
        {
          "internalType": "string",
          "name": "",
          "type": "string"
        },
        {
          "internalType": "uint256",
          "name": "",
          "type": "uint256"
        }
      ],
      "stateMutability": "view",
      "type": "function",
      "constant": true
    },
    {
      "inputs": [],
      "name": "getContractBalance",
      "outputs": [
        {
          "internalType": "uint256",
          "name": "",
          "type": "uint256"
        }
      ],
      "stateMutability": "view",
      "type": "function",
      "constant": true
    },
    {
      "inputs": [
        {
          "internalType": "address",
          "name": "user",
          "type": "address"
        }
      ],
      "name": "userHasVoted",
      "outputs": [
        {
          "internalType": "bool",
          "name": "",
          "type": "bool"
        }
      ],
      "stateMutability": "view",
      "type": "function",
      "constant": true
    }
  ],
  "bytecode": "0x60806040523480156200001157600080fd5b5033600260006101000a81548173ffffffffffffffffffffffffffffffffffffffff021916908373ffffffffffffffffffffffffffffffffffffffff1602179055506001600260146101000a81548160ff0219169083151502179055506000600260156101000a81548160ff0219169083151502179055506000600460006101000a81548160ff02191690831515021790555060006040518060a001604052806040518060400160405280600481526020017f426f6e690000000000000000000000000000000000000000000000000000000081525081526020016040518060400160405280600681526020017f43617375616c000000000000000000000000000000000000000000000000000081525081526020016040518060400160405280600781526020017f4a616b6172746100000000000000000000000000000000000000000000000000815250815260200160168152602001600081525090806001815401808255809150506001900390600052602060002090600502016000909190919091506000820151816000019081620001ae919062000868565b506020820151816001019081620001c6919062000868565b506040820151816002019081620001de919062000868565b506060820151816003015560808201518160040155505060006040518060a001604052806040518060400160405280600481526020017f43696b6f0000000000000000000000000000000000000000000000000000000081525081526020016040518060400160405280600a81526020017f537472656574776561720000000000000000000000000000000000000000000081525081526020016040518060400160405280600781526020017f42616e64756e6700000000000000000000000000000000000000000000000000815250815260200160188152602001600081525090806001815401808255809150506001900390600052602060002090600502016000909190919091506000820151816000019081620002ff919062000868565b50602082015181600101908162000317919062000868565b5060408201518160020190816200032f919062000868565b506060820151816003015560808201518160040155505060006040518060a001604052806040518060400160405280600481526020017f446f646f0000000000000000000000000000000000000000000000000000000081525081526020016040518060400160405280600681526020017f4b6f7265616e000000000000000000000000000000000000000000000000000081525081526020016040518060400160405280600881526020017f537572616261796100000000000000000000000000000000000000000000000081525081526020016015815260200160008152509080600181540180825580915050600190039060005260206000209060050201600090919091909150600082015181600001908162000450919062000868565b50602082015181600101908162000468919062000868565b50604082015181600201908162000480919062000868565b506060820151816003015560808201518160040155505060006040518060a001604052806040518060400160405280600481526020017f456368610000000000000000000000000000000000000000000000000000000081525081526020016040518060400160405280600481526020017f436869630000000000000000000000000000000000000000000000000000000081525081526020016040518060400160405280600a81526020017f596f6779616b6172746100000000000000000000000000000000000000000000815250815260200160178152602001600081525090806001815401808255809150506001900390600052602060002090600502016000909190919091506000820151816000019081620005a1919062000868565b506020820151816001019081620005b9919062000868565b506040820151816002019081620005d1919062000868565b50606082015181600301556080820151816004015550506200094f565b600081519050919050565b7f4e487b7100000000000000000000000000000000000000000000000000000000600052604160045260246000fd5b7f4e487b7100000000000000000000000000000000000000000000000000000000600052602260045260246000fd5b600060028204905060018216806200067057607f821691505b60208210810362000686576200068562000628565b5b50919050565b60008190508160005260206000209050919050565b60006020601f8301049050919050565b600082821b905092915050565b600060088302620006f07fffffffffffffffffffffffffffffffffffffffffffffffffffffffffffffffff82620006b1565b620006fc8683620006b1565b95508019841693508086168417925050509392505050565b6000819050919050565b6000819050919050565b600062000749620007436200073d8462000714565b6200071e565b62000714565b9050919050565b6000819050919050565b620007658362000728565b6200077d620007748262000750565b848454620006be565b825550505050565b600090565b6200079462000785565b620007a18184846200075a565b505050565b5b81811015620007c957620007bd6000826200078a565b600181019050620007a7565b5050565b601f8211156200081857620007e2816200068c565b620007ed84620006a1565b81016020851015620007fd578190505b620008156200080c85620006a1565b830182620007a6565b50505b505050565b600082821c905092915050565b60006200083d600019846008026200081d565b1980831691505092915050565b60006200085883836200082a565b9150826002028217905092915050565b6200087382620005ee565b67ffffffffffffffff8111156200088f576200088e620005f9565b5b6200089b825462000657565b620008a8828285620007cd565b600060209050601f831160018114620008e05760008415620008cb578287015190505b620008d785826200084a565b86555062000947565b601f198416620008f0866200068c565b60005b828110156200091a57848901518255600182019150602085019450602081019050620008f3565b868310156200093a578489015162000936601f8916826200082a565b8355505b6001600288020188555050505b505050505050565b611a8d806200095f6000396000f3fe6080604052600436106101025760003560e01c80636f9fb98a116100955780638f00cbfa116100645780638f00cbfa146103315780639755a7101461035c578063a90cc44514610387578063a95824b4146103b2578063fa7f1bae146103dd57610109565b80636f9fb98a14610298578063856e698c146102c35780638da5cb5b146102da5780638e7ea5b21461030557610109565b80632479ecb8116100d15780632479ecb8146101e557806335c1d3491461021057806345825c58146102515780635ac2bb6e1461027c57610109565b80630121b93f1461010e578063032131dc1461012a57806309eef43e146101675780631b9db2ef146101a457610109565b3661010957005b600080fd5b610128600480360381019061012391906110f0565b610408565b005b34801561013657600080fd5b50610151600480360381019061014c919061117b565b61060b565b60405161015e91906111c3565b60405180910390f35b34801561017357600080fd5b5061018e6004803603810190610189919061117b565b610661565b60405161019b91906111c3565b60405180910390f35b3480156101b057600080fd5b506101cb60048036038101906101c691906110f0565b610681565b6040516101dc95949392919061127d565b60405180910390f35b3480156101f157600080fd5b506101fa6108b0565b60405161020791906111c3565b60405180910390f35b34801561021c57600080fd5b50610237600480360381019061023291906110f0565b6108c3565b60405161024895949392919061127d565b60405180910390f35b34801561025d57600080fd5b50610266610aa1565b60405161027391906111c3565b60405180910390f35b61029660048036038101906102919190611323565b610ab8565b005b3480156102a457600080fd5b506102ad610d35565b6040516102ba9190611350565b60405180910390f35b3480156102cf57600080fd5b506102d8610d3d565b005b3480156102e657600080fd5b506102ef610ea2565b6040516102fc919061137a565b60405180910390f35b34801561031157600080fd5b5061031a610ec8565b604051610328929190611395565b60405180910390f35b34801561033d57600080fd5b50610346610fd9565b6040516103539190611350565b60405180910390f35b34801561036857600080fd5b50610371610fdf565b60405161037e91906111c3565b60405180910390f35b34801561039357600080fd5b5061039c610ff2565b6040516103a99190611350565b60405180910390f35b3480156103be57600080fd5b506103c7610ffe565b6040516103d491906111c3565b60405180910390f35b3480156103e957600080fd5b506103f2611011565b6040516103ff91906111c3565b60405180910390f35b600260149054906101000a900460ff16610457576040517f08c379a000000000000000000000000000000000000000000000000000000000815260040161044e90611411565b60405180910390fd5b600160003373ffffffffffffffffffffffffffffffffffffffff1673ffffffffffffffffffffffffffffffffffffffff16815260200190815260200160002060009054906101000a900460ff16156104e4576040517f08c379a00000000000000000000000000000000000000000000000000000000081526004016104db9061147d565b60405180910390fd5b662386f26fc10000341461052d576040517f08c379a0000000000000000000000000000000000000000000000000000000008152600401610524906114e9565b60405180910390fd5b6000805490508110610574576040517f08c379a000000000000000000000000000000000000000000000000000000000815260040161056b90611555565b60405180910390fd5b60016000828154811061058a57610589611575565b5b906000526020600020906005020160040160008282546105aa91906115d3565b9250508190555060018060003373ffffffffffffffffffffffffffffffffffffffff1673ffffffffffffffffffffffffffffffffffffffff16815260200190815260200160002060006101000a81548160ff02191690831515021790555050565b6000600160008373ffffffffffffffffffffffffffffffffffffffff1673ffffffffffffffffffffffffffffffffffffffff16815260200190815260200160002060009054906101000a900460ff169050919050565b60016020528060005260406000206000915054906101000a900460ff1681565b6060806060600080600080878154811061069e5761069d611575565b5b90600052602060002090600502016040518060a00160405290816000820180546106c790611636565b80601f01602080910402602001604051908101604052809291908181526020018280546106f390611636565b80156107405780601f1061071557610100808354040283529160200191610740565b820191906000526020600020905b81548152906001019060200180831161072357829003601f168201915b5050505050815260200160018201805461075990611636565b80601f016020809104026020016040519081016040528092919081815260200182805461078590611636565b80156107d25780601f106107a7576101008083540402835291602001916107d2565b820191906000526020600020905b8154815290600101906020018083116107b557829003601f168201915b505050505081526020016002820180546107eb90611636565b80601f016020809104026020016040519081016040528092919081815260200182805461081790611636565b80156108645780601f1061083957610100808354040283529160200191610864565b820191906000526020600020905b81548152906001019060200180831161084757829003601f168201915b5050505050815260200160038201548152602001600482015481525050905080600001518160200151826040015183606001518460800151955095509550955095505091939590929450565b600260159054906101000a900460ff1681565b600081815481106108d357600080fd5b90600052602060002090600502016000915090508060000180546108f690611636565b80601f016020809104026020016040519081016040528092919081815260200182805461092290611636565b801561096f5780601f106109445761010080835404028352916020019161096f565b820191906000526020600020905b81548152906001019060200180831161095257829003601f168201915b50505050509080600101805461098490611636565b80601f01602080910402602001604051908101604052809291908181526020018280546109b090611636565b80156109fd5780601f106109d2576101008083540402835291602001916109fd565b820191906000526020600020905b8154815290600101906020018083116109e057829003601f168201915b505050505090806002018054610a1290611636565b80601f0160208091040260200160405190810160405280929190818152602001828054610a3e90611636565b8015610a8b5780601f10610a6057610100808354040283529160200191610a8b565b820191906000526020600020905b815481529060010190602001808311610a6e57829003601f168201915b5050505050908060030154908060040154905085565b6000600260159054906101000a900460ff16905090565b600260009054906101000a900473ffffffffffffffffffffffffffffffffffffffff1673ffffffffffffffffffffffffffffffffffffffff163373ffffffffffffffffffffffffffffffffffffffff1614610b48576040517f08c379a0000000000000000000000000000000000000000000000000000000008152600401610b3f906116b3565b60405180910390fd5b600260149054906101000a900460ff16610b97576040517f08c379a0000000000000000000000000000000000000000000000000000000008152600401610b8e9061171f565b60405180910390fd5b6000600260146101000a81548160ff0219169083151502179055506001600260156101000a81548160ff021916908315150217905550610bd5611028565b6003819055506001600460006101000a81548160ff021916908315150217905550678ac7230489e80000471015610c41576040517f08c379a0000000000000000000000000000000000000000000000000000000008152600401610c389061178b565b60405180910390fd5b8073ffffffffffffffffffffffffffffffffffffffff166108fc678ac7230489e800009081150290604051600060405180830381858888f19350505050158015610c8f573d6000803e3d6000fd5b507f93684218e60da64d6622a33520b16cc6be7ee4cfd3a4280bf70d05bdb41871e8600354600060035481548110610cca57610cc9611575565b5b9060005260206000209060050201600001604051610ce9929190611844565b60405180910390a17f6177f4110771217c72937d51f3a73915f2c714a6b98507e17eea7a186136a24a81678ac7230489e80000604051610d2a92919061190e565b60405180910390a150565b600047905090565b600260009054906101000a900473ffffffffffffffffffffffffffffffffffffffff1673ffffffffffffffffffffffffffffffffffffffff163373ffffffffffffffffffffffffffffffffffffffff1614610dcd576040517f08c379a0000000000000000000000000000000000000000000000000000000008152600401610dc490611983565b60405180910390fd5b60005b600080549050811015610e1a576000808281548110610df257610df1611575565b5b9060005260206000209060050201600401819055508080610e12906119a3565b915050610dd0565b506001600260146101000a81548160ff0219169083151502179055506000600260156101000a81548160ff0219169083151502179055506000600460006101000a81548160ff02191690831515021790555060006003819055507feb4b0a76799cb305ae86d5a0b30e0e77b1e23fa8cb85eb788ede212bd6b324a660405160405180910390a1565b600260009054906101000a900473ffffffffffffffffffffffffffffffffffffffff1681565b60606000600460009054906101000a900460ff16610f1b576040517f08c379a0000000000000000000000000000000000000000000000000000000008152600401610f1290611a37565b60405180910390fd5b600060035481548110610f3157610f30611575565b5b9060005260206000209060050201600001600354818054610f5190611636565b80601f0160208091040260200160405190810160405280929190818152602001828054610f7d90611636565b8015610fca5780601f10610f9f57610100808354040283529160200191610fca565b820191906000526020600020905b815481529060010190602001808311610fad57829003601f168201915b50505050509150915091509091565b60035481565b600460009054906101000a900460ff1681565b60008080549050905090565b600260149054906101000a900460ff1681565b6000600260149054906101000a900460ff16905090565b600080600090506000805b6000805490508110156110ac57826000828154811061105557611054611575565b5b9060005260206000209060050201600401541115611099576000818154811061108157611080611575565b5b90600052602060002090600502016004015492508091505b80806110a4906119a3565b915050611033565b50809250505090565b600080fd5b6000819050919050565b6110cd816110ba565b81146110d857600080fd5b50565b6000813590506110ea816110c4565b92915050565b600060208284031215611106576111056110b5565b5b6000611114848285016110db565b91505092915050565b600073ffffffffffffffffffffffffffffffffffffffff82169050919050565b60006111488261111d565b9050919050565b6111588161113d565b811461116357600080fd5b50565b6000813590506111758161114f565b92915050565b600060208284031215611191576111906110b5565b5b600061119f84828501611166565b91505092915050565b60008115159050919050565b6111bd816111a8565b82525050565b60006020820190506111d860008301846111b4565b92915050565b600081519050919050565b600082825260208201905092915050565b60005b838110156112185780820151818401526020810190506111fd565b60008484015250505050565b6000601f19601f8301169050919050565b6000611240826111de565b61124a81856111e9565b935061125a8185602086016111fa565b61126381611224565b840191505092915050565b611277816110ba565b82525050565b600060a08201905081810360008301526112978188611235565b905081810360208301526112ab8187611235565b905081810360408301526112bf8186611235565b90506112ce606083018561126e565b6112db608083018461126e565b9695505050505050565b60006112f08261111d565b9050919050565b611300816112e5565b811461130b57600080fd5b50565b60008135905061131d816112f7565b92915050565b600060208284031215611339576113386110b5565b5b60006113478482850161130e565b91505092915050565b6000602082019050611365600083018461126e565b92915050565b6113748161113d565b82525050565b600060208201905061138f600083018461136b565b92915050565b600060408201905081810360008301526113af8185611235565b90506113be602083018461126e565b9392505050565b7f566f74696e6720697320636c6f73656400000000000000000000000000000000600082015250565b60006113fb6010836111e9565b9150611406826113c5565b602082019050919050565b6000602082019050818103600083015261142a816113ee565b9050919050565b7f596f7520616c726561647920766f746564000000000000000000000000000000600082015250565b60006114676011836111e9565b915061147282611431565b602082019050919050565b600060208201905081810360008301526114968161145a565b9050919050565b7f566f74696e6720636f73747320302e3031204554480000000000000000000000600082015250565b60006114d36015836111e9565b91506114de8261149d565b602082019050919050565b60006020820190508181036000830152611502816114c6565b9050919050565b7f496e76616c696420696e64657800000000000000000000000000000000000000600082015250565b600061153f600d836111e9565b915061154a82611509565b602082019050919050565b6000602082019050818103600083015261156e81611532565b9050919050565b7f4e487b7100000000000000000000000000000000000000000000000000000000600052603260045260246000fd5b7f4e487b7100000000000000000000000000000000000000000000000000000000600052601160045260246000fd5b60006115de826110ba565b91506115e9836110ba565b9250828201905080821115611601576116006115a4565b5b92915050565b7f4e487b7100000000000000000000000000000000000000000000000000000000600052602260045260246000fd5b6000600282049050600182168061164e57607f821691505b60208210810361166157611660611607565b5b50919050565b7f4f6e6c79206f776e65722063616e20636c6f736520766f74696e670000000000600082015250565b600061169d601b836111e9565b91506116a882611667565b602082019050919050565b600060208201905081810360008301526116cc81611690565b9050919050565b7f566f74696e6720616c726561647920636c6f7365640000000000000000000000600082015250565b60006117096015836111e9565b9150611714826116d3565b602082019050919050565b60006020820190508181036000830152611738816116fc565b9050919050565b7f496e73756666696369656e742062616c616e636520666f722072657761726400600082015250565b6000611775601f836111e9565b91506117808261173f565b602082019050919050565b600060208201905081810360008301526117a481611768565b9050919050565b60008190508160005260206000209050919050565b600081546117cd81611636565b6117d781866111e9565b945060018216600081146117f257600181146118085761183b565b60ff19831686528115156020028601935061183b565b611811856117ab565b60005b8381101561183357815481890152600182019150602081019050611814565b808801955050505b50505092915050565b6000604082019050611859600083018561126e565b818103602083015261186b81846117c0565b90509392505050565b6000819050919050565b600061189961189461188f8461111d565b611874565b61111d565b9050919050565b60006118ab8261187e565b9050919050565b60006118bd826118a0565b9050919050565b6118cd816118b2565b82525050565b6000819050919050565b60006118f86118f36118ee846118d3565b611874565b6110ba565b9050919050565b611908816118dd565b82525050565b600060408201905061192360008301856118c4565b61193060208301846118ff565b9392505050565b7f4f6e6c79206f776e65722063616e20726573657420766f74696e670000000000600082015250565b600061196d601b836111e9565b915061197882611937565b602082019050919050565b6000602082019050818103600083015261199c81611960565b9050919050565b60006119ae826110ba565b91507fffffffffffffffffffffffffffffffffffffffffffffffffffffffffffffffff82036119e0576119df6115a4565b5b600182019050919050565b7f4e6f2077696e6e65722064657465726d696e6564207965740000000000000000600082015250565b6000611a216018836111e9565b9150611a2c826119eb565b602082019050919050565b60006020820190508181036000830152611a5081611a14565b905091905056fea26469706673582212204331202776f38e807bf9df1063bfa42ccc2409fc4ea77773402bddac9a5e613e64736f6c63430008110033",
  "immutableReferences": {},
  "source": "// SPDX-License-Identifier: MIT\r\npragma solidity >=0.7.0 <0.9.0;\r\n\r\ncontract FashionVoting {\r\n    struct Participant {\r\n        string name;\r\n        string style;\r\n        string location;\r\n        uint age;\r\n        uint voteCount;\r\n    }\r\n\r\n    Participant[] public participants;\r\n    mapping(address => bool) public hasVoted;\r\n    address public owner;\r\n    bool public votingOpen;\r\n    bool public votingClosed;\r\n    uint public winnerIndex;\r\n    bool public hasWinner;\r\n\r\n    event VotingClosed(uint winnerIndex, string winnerName);\r\n    event VotingReset();\r\n    event RewardSent(address winner, uint amount);\r\n\r\n    constructor() {\r\n        owner = msg.sender;\r\n        votingOpen = true;\r\n        votingClosed = false;\r\n        hasWinner = false;\r\n\r\n        participants.push(Participant(\"Boni\", \"Casual\", \"Jakarta\", 22, 0));\r\n        participants.push(Participant(\"Ciko\", \"Streetwear\", \"Bandung\", 24, 0));\r\n        participants.push(Participant(\"Dodo\", \"Korean\", \"Surabaya\", 21, 0));\r\n        participants.push(Participant(\"Echa\", \"Chic\", \"Yogyakarta\", 23, 0));\r\n    }\r\n\r\n    function getParticipant(uint index) public view returns (\r\n        string memory, string memory, string memory, uint, uint\r\n    ) {\r\n        Participant memory p = participants[index];\r\n        return (p.name, p.style, p.location, p.age, p.voteCount);\r\n    }\r\n\r\n    function getTotalParticipants() public view returns (uint) {\r\n        return participants.length;\r\n    }\r\n\r\n    function vote(uint index) public payable {\r\n        require(votingOpen, \"Voting is closed\");\r\n        require(!hasVoted[msg.sender], \"You already voted\");\r\n        require(msg.value == 0.01 ether, \"Voting costs 0.01 ETH\");\r\n        require(index < participants.length, \"Invalid index\");\r\n\r\n        participants[index].voteCount += 1;\r\n        hasVoted[msg.sender] = true;\r\n    }\r\n\r\n    function getWinnerIndex() internal view returns (uint) {\r\n        uint highest = 0;\r\n        uint winner = 0;\r\n        for (uint i = 0; i < participants.length; i++) {\r\n            if (participants[i].voteCount > highest) {\r\n                highest = participants[i].voteCount;\r\n                winner = i;\r\n            }\r\n        }\r\n        return winner;\r\n    }\r\n\r\n    function closeVotingAndSendReward(address payable winnerAddress) public payable {\r\n        require(msg.sender == owner, \"Only owner can close voting\");\r\n        require(votingOpen, \"Voting already closed\");\r\n        \r\n        votingOpen = false;\r\n        votingClosed = true;\r\n        winnerIndex = getWinnerIndex();\r\n        hasWinner = true;\r\n\r\n        // Send 10 ETH reward to winner\r\n        require(address(this).balance >= 10 ether, \"Insufficient balance for reward\");\r\n        winnerAddress.transfer(10 ether);\r\n        \r\n        emit VotingClosed(winnerIndex, participants[winnerIndex].name);\r\n        emit RewardSent(winnerAddress, 10 ether);\r\n    }\r\n\r\n    function resetVoting() public {\r\n        require(msg.sender == owner, \"Only owner can reset voting\");\r\n        \r\n        // Reset all vote counts\r\n        for (uint i = 0; i < participants.length; i++) {\r\n            participants[i].voteCount = 0;\r\n        }\r\n        \r\n        // Reset voting states\r\n        votingOpen = true;\r\n        votingClosed = false;\r\n        hasWinner = false;\r\n        winnerIndex = 0;\r\n        \r\n        // Clear all voter records\r\n        // Note: In practice, you might want to keep track of all voters to reset them\r\n        // For simplicity, we'll rely on frontend to handle this\r\n        \r\n        emit VotingReset();\r\n    }\r\n\r\n    function isVotingOpen() public view returns (bool) {\r\n        return votingOpen;\r\n    }\r\n\r\n    function isVotingClosed() public view returns (bool) {\r\n        return votingClosed;\r\n    }\r\n\r\n    function getWinner() public view returns (string memory, uint) {\r\n        require(hasWinner, \"No winner determined yet\");\r\n        return (participants[winnerIndex].name, winnerIndex);\r\n    }\r\n\r\n    function getContractBalance() public view returns (uint) {\r\n        return address(this).balance;\r\n    }\r\n\r\n    // Function to check if user has voted\r\n    function userHasVoted(address user) public view returns (bool) {\r\n        return hasVoted[user];\r\n    }\r\n\r\n    receive() external payable {}\r\n}",
  "sourcePath": "C:\\Users\\cassi\\OneDrive\\Documents\\Voting\\contracts\\FashionVoting.sol",
  "compiler": {
    "name": "solc",
    "version": "0.8.17+commit.8df45f5f.Emscripten.clang"
  },
  "schemaVersion": "3.4.16",
  "updatedAt": "2025-06-18T07:12:59.363Z",
  "networkType": "ethereum",
  "devdoc": {
    "kind": "dev",
    "methods": {},
    "version": 1
  },
  "userdoc": {
    "kind": "user",
    "methods": {},
    "version": 1
  }
}