{
  "contractName": "FashionVote",
  "abi": [
    {
      "inputs": [],
      "stateMutability": "nonpayable",
      "type": "constructor"
    },
    {
      "inputs": [],
      "name": "admin",
      "outputs": [
        {
          "internalType": "address",
          "name": "",
          "type": "address"
        }
      ],
      "stateMutability": "view",
      "type": "function",
      "constant": true
    },
    {
      "inputs": [
        {
          "internalType": "address",
          "name": "",
          "type": "address"
        }
      ],
      "name": "hasVoted",
      "outputs": [
        {
          "internalType": "bool",
          "name": "",
          "type": "bool"
        }
      ],
      "stateMutability": "view",
      "type": "function",
      "constant": true
    },
    {
      "inputs": [
        {
          "internalType": "uint256",
          "name": "",
          "type": "uint256"
        }
      ],
      "name": "participants",
      "outputs": [
        {
          "internalType": "string",
          "name": "name",
          "type": "string"
        },
        {
          "internalType": "uint256",
          "name": "voteCount",
          "type": "uint256"
        }
      ],
      "stateMutability": "view",
      "type": "function",
      "constant": true
    },
    {
      "inputs": [],
      "name": "votingOpen",
      "outputs": [
        {
          "internalType": "bool",
          "name": "",
          "type": "bool"
        }
      ],
      "stateMutability": "view",
      "type": "function",
      "constant": true
    },
    {
      "inputs": [
        {
          "internalType": "string",
          "name": "_name",
          "type": "string"
        }
      ],
      "name": "addParticipant",
      "outputs": [],
      "stateMutability": "nonpayable",
      "type": "function"
    },
    {
      "inputs": [],
      "name": "startVoting",
      "outputs": [],
      "stateMutability": "nonpayable",
      "type": "function"
    },
    {
      "inputs": [],
      "name": "endVoting",
      "outputs": [],
      "stateMutability": "nonpayable",
      "type": "function"
    },
    {
      "inputs": [
        {
          "internalType": "uint256",
          "name": "index",
          "type": "uint256"
        }
      ],
      "name": "vote",
      "outputs": [],
      "stateMutability": "nonpayable",
      "type": "function"
    },
    {
      "inputs": [],
      "name": "getParticipants",
      "outputs": [
        {
          "components": [
            {
              "internalType": "string",
              "name": "name",
              "type": "string"
            },
            {
              "internalType": "uint256",
              "name": "voteCount",
              "type": "uint256"
            }
          ],
          "internalType": "struct FashionVote.Participant[]",
          "name": "",
          "type": "tuple[]"
        }
      ],
      "stateMutability": "view",
      "type": "function",
      "constant": true
    },
    {
      "inputs": [],
      "name": "getWinner",
      "outputs": [
        {
          "internalType": "string",
          "name": "winnerName",
          "type": "string"
        }
      ],
      "stateMutability": "view",
      "type": "function",
      "constant": true
    }
  ],
  "bytecode": "0x608060405234801561001057600080fd5b50336000806101000a81548173ffffffffffffffffffffffffffffffffffffffff021916908373ffffffffffffffffffffffffffffffffffffffff16021790555060008060146101000a81548160ff0219169083151502179055506113c48061007a6000396000f3fe608060405234801561001057600080fd5b506004361061009e5760003560e01c80635aa68ac0116100665780635aa68ac0146101465780638e7ea5b214610164578063a95824b414610182578063c3403ddf146101a0578063f851a440146101aa5761009e565b80630121b93f146100a357806309eef43e146100bf5780631ec6b60a146100ef57806335c1d349146100f9578063364de8b61461012a575b600080fd5b6100bd60048036038101906100b89190610959565b6101c8565b005b6100d960048036038101906100d491906109e4565b610381565b6040516100e69190610a2c565b60405180910390f35b6100f76103a1565b005b610113600480360381019061010e9190610959565b61044c565b604051610121929190610ae6565b60405180910390f35b610144600480360381019061013f9190610c4b565b610508565b005b61014e6105fc565b60405161015b9190610dec565b60405180910390f35b61016c6106f7565b6040516101799190610e0e565b60405180910390f35b61018a61082e565b6040516101979190610a2c565b60405180910390f35b6101a8610841565b005b6101b26108eb565b6040516101bf9190610e3f565b60405180910390f35b600060149054906101000a900460ff16610217576040517f08c379a000000000000000000000000000000000000000000000000000000000815260040161020e90610ea6565b60405180910390fd5b600260003373ffffffffffffffffffffffffffffffffffffffff1673ffffffffffffffffffffffffffffffffffffffff16815260200190815260200160002060009054906101000a900460ff16156102a4576040517f08c379a000000000000000000000000000000000000000000000000000000000815260040161029b90610f12565b60405180910390fd5b60018054905081106102eb576040517f08c379a00000000000000000000000000000000000000000000000000000000081526004016102e290610f7e565b60405180910390fd5b6001600260003373ffffffffffffffffffffffffffffffffffffffff1673ffffffffffffffffffffffffffffffffffffffff16815260200190815260200160002060006101000a81548160ff0219169083151502179055506001818154811061035757610356610f9e565b5b9060005260206000209060020201600101600081548092919061037990610ffc565b919050555050565b60026020528060005260406000206000915054906101000a900460ff1681565b60008054906101000a900473ffffffffffffffffffffffffffffffffffffffff1673ffffffffffffffffffffffffffffffffffffffff163373ffffffffffffffffffffffffffffffffffffffff161461042f576040517f08c379a000000000000000000000000000000000000000000000000000000000815260040161042690611090565b60405180910390fd5b6001600060146101000a81548160ff021916908315150217905550565b6001818154811061045c57600080fd5b906000526020600020906002020160009150905080600001805461047f906110df565b80601f01602080910402602001604051908101604052809291908181526020018280546104ab906110df565b80156104f85780601f106104cd576101008083540402835291602001916104f8565b820191906000526020600020905b8154815290600101906020018083116104db57829003601f168201915b5050505050908060010154905082565b60008054906101000a900473ffffffffffffffffffffffffffffffffffffffff1673ffffffffffffffffffffffffffffffffffffffff163373ffffffffffffffffffffffffffffffffffffffff1614610596576040517f08c379a000000000000000000000000000000000000000000000000000000000815260040161058d90611090565b60405180910390fd5b600160405180604001604052808381526020016000815250908060018154018082558091505060019003906000526020600020906002020160009091909190915060008201518160000190816105ec91906112bc565b5060208201518160010155505050565b60606001805480602002602001604051908101604052809291908181526020016000905b828210156106ee5783829060005260206000209060020201604051806040016040529081600082018054610653906110df565b80601f016020809104026020016040519081016040528092919081815260200182805461067f906110df565b80156106cc5780601f106106a1576101008083540402835291602001916106cc565b820191906000526020600020905b8154815290600101906020018083116106af57829003601f168201915b5050505050815260200160018201548152505081526020019060010190610620565b50505050905090565b606060008060005b60018054905081101561077857826001828154811061072157610720610f9e565b5b9060005260206000209060020201600101541115610765576001818154811061074d5761074c610f9e565b5b90600052602060002090600202016001015492508091505b808061077090610ffc565b9150506106ff565b506001818154811061078d5761078c610f9e565b5b906000526020600020906002020160000180546107a9906110df565b80601f01602080910402602001604051908101604052809291908181526020018280546107d5906110df565b80156108225780601f106107f757610100808354040283529160200191610822565b820191906000526020600020905b81548152906001019060200180831161080557829003601f168201915b50505050509250505090565b600060149054906101000a900460ff1681565b60008054906101000a900473ffffffffffffffffffffffffffffffffffffffff1673ffffffffffffffffffffffffffffffffffffffff163373ffffffffffffffffffffffffffffffffffffffff16146108cf576040517f08c379a00000000000000000000000000000000000000000000000000000000081526004016108c690611090565b60405180910390fd5b60008060146101000a81548160ff021916908315150217905550565b60008054906101000a900473ffffffffffffffffffffffffffffffffffffffff1681565b6000604051905090565b600080fd5b600080fd5b6000819050919050565b61093681610923565b811461094157600080fd5b50565b6000813590506109538161092d565b92915050565b60006020828403121561096f5761096e610919565b5b600061097d84828501610944565b91505092915050565b600073ffffffffffffffffffffffffffffffffffffffff82169050919050565b60006109b182610986565b9050919050565b6109c1816109a6565b81146109cc57600080fd5b50565b6000813590506109de816109b8565b92915050565b6000602082840312156109fa576109f9610919565b5b6000610a08848285016109cf565b91505092915050565b60008115159050919050565b610a2681610a11565b82525050565b6000602082019050610a416000830184610a1d565b92915050565b600081519050919050565b600082825260208201905092915050565b60005b83811015610a81578082015181840152602081019050610a66565b60008484015250505050565b6000601f19601f8301169050919050565b6000610aa982610a47565b610ab38185610a52565b9350610ac3818560208601610a63565b610acc81610a8d565b840191505092915050565b610ae081610923565b82525050565b60006040820190508181036000830152610b008185610a9e565b9050610b0f6020830184610ad7565b9392505050565b600080fd5b600080fd5b7f4e487b7100000000000000000000000000000000000000000000000000000000600052604160045260246000fd5b610b5882610a8d565b810181811067ffffffffffffffff82111715610b7757610b76610b20565b5b80604052505050565b6000610b8a61090f565b9050610b968282610b4f565b919050565b600067ffffffffffffffff821115610bb657610bb5610b20565b5b610bbf82610a8d565b9050602081019050919050565b82818337600083830152505050565b6000610bee610be984610b9b565b610b80565b905082815260208101848484011115610c0a57610c09610b1b565b5b610c15848285610bcc565b509392505050565b600082601f830112610c3257610c31610b16565b5b8135610c42848260208601610bdb565b91505092915050565b600060208284031215610c6157610c60610919565b5b600082013567ffffffffffffffff811115610c7f57610c7e61091e565b5b610c8b84828501610c1d565b91505092915050565b600081519050919050565b600082825260208201905092915050565b6000819050602082019050919050565b600082825260208201905092915050565b6000610cdc82610a47565b610ce68185610cc0565b9350610cf6818560208601610a63565b610cff81610a8d565b840191505092915050565b610d1381610923565b82525050565b60006040830160008301518482036000860152610d368282610cd1565b9150506020830151610d4b6020860182610d0a565b508091505092915050565b6000610d628383610d19565b905092915050565b6000602082019050919050565b6000610d8282610c94565b610d8c8185610c9f565b935083602082028501610d9e85610cb0565b8060005b85811015610dda5784840389528151610dbb8582610d56565b9450610dc683610d6a565b925060208a01995050600181019050610da2565b50829750879550505050505092915050565b60006020820190508181036000830152610e068184610d77565b905092915050565b60006020820190508181036000830152610e288184610a9e565b905092915050565b610e39816109a6565b82525050565b6000602082019050610e546000830184610e30565b92915050565b7f566f74696e67206973206e6f74206f70656e2e00000000000000000000000000600082015250565b6000610e90601383610a52565b9150610e9b82610e5a565b602082019050919050565b60006020820190508181036000830152610ebf81610e83565b9050919050565b7f596f75206861766520616c726561647920766f7465642e000000000000000000600082015250565b6000610efc601783610a52565b9150610f0782610ec6565b602082019050919050565b60006020820190508181036000830152610f2b81610eef565b9050919050565b7f496e76616c6964207061727469636970616e742e000000000000000000000000600082015250565b6000610f68601483610a52565b9150610f7382610f32565b602082019050919050565b60006020820190508181036000830152610f9781610f5b565b9050919050565b7f4e487b7100000000000000000000000000000000000000000000000000000000600052603260045260246000fd5b7f4e487b7100000000000000000000000000000000000000000000000000000000600052601160045260246000fd5b600061100782610923565b91507fffffffffffffffffffffffffffffffffffffffffffffffffffffffffffffffff820361103957611038610fcd565b5b600182019050919050565b7f4f6e6c792061646d696e2063616e20706572666f726d20746869732e00000000600082015250565b600061107a601c83610a52565b915061108582611044565b602082019050919050565b600060208201905081810360008301526110a98161106d565b9050919050565b7f4e487b7100000000000000000000000000000000000000000000000000000000600052602260045260246000fd5b600060028204905060018216806110f757607f821691505b60208210810361110a576111096110b0565b5b50919050565b60008190508160005260206000209050919050565b60006020601f8301049050919050565b600082821b905092915050565b6000600883026111727fffffffffffffffffffffffffffffffffffffffffffffffffffffffffffffffff82611135565b61117c8683611135565b95508019841693508086168417925050509392505050565b6000819050919050565b60006111b96111b46111af84610923565b611194565b610923565b9050919050565b6000819050919050565b6111d38361119e565b6111e76111df826111c0565b848454611142565b825550505050565b600090565b6111fc6111ef565b6112078184846111ca565b505050565b5b8181101561122b576112206000826111f4565b60018101905061120d565b5050565b601f8211156112705761124181611110565b61124a84611125565b81016020851015611259578190505b61126d61126585611125565b83018261120c565b50505b505050565b600082821c905092915050565b600061129360001984600802611275565b1980831691505092915050565b60006112ac8383611282565b9150826002028217905092915050565b6112c582610a47565b67ffffffffffffffff8111156112de576112dd610b20565b5b6112e882546110df565b6112f382828561122f565b600060209050601f8311600181146113265760008415611314578287015190505b61131e85826112a0565b865550611386565b601f19841661133486611110565b60005b8281101561135c57848901518255600182019150602085019450602081019050611337565b868310156113795784890151611375601f891682611282565b8355505b6001600288020188555050505b50505050505056fea26469706673582212201b0a14ad729100d2feede1c18c73767fa64228e685ca1101173c916e795aa11864736f6c63430008110033",
  "immutableReferences": {},
  "source": "// SPDX-License-Identifier: MIT\r\n//pragma solidity ^0.8.0;\r\npragma solidity >=0.7.0 <0.9.0;\r\n\r\ncontract FashionVote {\r\n    struct Participant {\r\n        string name;\r\n        uint voteCount;\r\n    }\r\n\r\n    address public admin;\r\n    bool public votingOpen;\r\n\r\n    Participant[] public participants;\r\n    mapping(address => bool) public hasVoted;\r\n\r\n    constructor() {\r\n        admin = msg.sender;\r\n        votingOpen = false;\r\n    }\r\n\r\n    modifier onlyAdmin() {\r\n        require(msg.sender == admin, \"Only admin can perform this.\");\r\n        _;\r\n    }\r\n\r\n    function addParticipant(string memory _name) public onlyAdmin {\r\n        participants.push(Participant(_name, 0));\r\n    }\r\n\r\n    function startVoting() public onlyAdmin {\r\n        votingOpen = true;\r\n    }\r\n\r\n    function endVoting() public onlyAdmin {\r\n        votingOpen = false;\r\n    }\r\n\r\n    function vote(uint index) public {\r\n        require(votingOpen, \"Voting is not open.\");\r\n        require(!hasVoted[msg.sender], \"You have already voted.\");\r\n        require(index < participants.length, \"Invalid participant.\");\r\n\r\n        hasVoted[msg.sender] = true;\r\n        participants[index].voteCount++;\r\n    }\r\n\r\n    function getParticipants() public view returns (Participant[] memory) {\r\n        return participants;\r\n    }\r\n\r\n    function getWinner() public view returns (string memory winnerName) {\r\n        uint maxVotes = 0;\r\n        uint winnerIndex = 0;\r\n\r\n        for (uint i = 0; i < participants.length; i++) {\r\n            if (participants[i].voteCount > maxVotes) {\r\n                maxVotes = participants[i].voteCount;\r\n                winnerIndex = i;\r\n            }\r\n        }\r\n\r\n        return participants[winnerIndex].name;\r\n    }\r\n}\r\n",
  "sourcePath": "C:\\Users\\cassi\\OneDrive\\Documents\\Voting\\contracts\\FashionVote.sol",
  "compiler": {
    "name": "solc",
    "version": "0.8.17+commit.8df45f5f.Emscripten.clang"
  },
  "schemaVersion": "3.4.16",
  "updatedAt": "2025-06-17T07:37:44.535Z",
  "networkType": "ethereum",
  "devdoc": {
    "kind": "dev",
    "methods": {},
    "version": 1
  },
  "userdoc": {
    "kind": "user",
    "methods": {},
    "version": 1
  }
}