{
  "contractName": "FashionVoting",
  "abi": [
    {
      "inputs": [],
      "stateMutability": "nonpayable",
      "type": "constructor"
    },
    {
      "inputs": [
        {
          "internalType": "address",
          "name": "",
          "type": "address"
        }
      ],
      "name": "hasVoted",
      "outputs": [
        {
          "internalType": "bool",
          "name": "",
          "type": "bool"
        }
      ],
      "stateMutability": "view",
      "type": "function",
      "constant": true
    },
    {
      "inputs": [],
      "name": "owner",
      "outputs": [
        {
          "internalType": "address",
          "name": "",
          "type": "address"
        }
      ],
      "stateMutability": "view",
      "type": "function",
      "constant": true
    },
    {
      "inputs": [
        {
          "internalType": "uint256",
          "name": "",
          "type": "uint256"
        }
      ],
      "name": "participants",
      "outputs": [
        {
          "internalType": "string",
          "name": "name",
          "type": "string"
        },
        {
          "internalType": "string",
          "name": "style",
          "type": "string"
        },
        {
          "internalType": "string",
          "name": "location",
          "type": "string"
        },
        {
          "internalType": "uint256",
          "name": "age",
          "type": "uint256"
        },
        {
          "internalType": "uint256",
          "name": "voteCount",
          "type": "uint256"
        }
      ],
      "stateMutability": "view",
      "type": "function",
      "constant": true
    },
    {
      "inputs": [],
      "name": "votingOpen",
      "outputs": [
        {
          "internalType": "bool",
          "name": "",
          "type": "bool"
        }
      ],
      "stateMutability": "view",
      "type": "function",
      "constant": true
    },
    {
      "stateMutability": "payable",
      "type": "receive",
      "payable": true
    },
    {
      "inputs": [
        {
          "internalType": "uint256",
          "name": "index",
          "type": "uint256"
        }
      ],
      "name": "getParticipant",
      "outputs": [
        {
          "internalType": "string",
          "name": "",
          "type": "string"
        },
        {
          "internalType": "string",
          "name": "",
          "type": "string"
        },
        {
          "internalType": "string",
          "name": "",
          "type": "string"
        },
        {
          "internalType": "uint256",
          "name": "",
          "type": "uint256"
        },
        {
          "internalType": "uint256",
          "name": "",
          "type": "uint256"
        }
      ],
      "stateMutability": "view",
      "type": "function",
      "constant": true
    },
    {
      "inputs": [],
      "name": "getTotalParticipants",
      "outputs": [
        {
          "internalType": "uint256",
          "name": "",
          "type": "uint256"
        }
      ],
      "stateMutability": "view",
      "type": "function",
      "constant": true
    },
    {
      "inputs": [
        {
          "internalType": "uint256",
          "name": "index",
          "type": "uint256"
        }
      ],
      "name": "vote",
      "outputs": [],
      "stateMutability": "payable",
      "type": "function",
      "payable": true
    },
    {
      "inputs": [
        {
          "internalType": "address payable",
          "name": "winnerAddress",
          "type": "address"
        }
      ],
      "name": "closeVotingAndSendReward",
      "outputs": [],
      "stateMutability": "nonpayable",
      "type": "function"
    },
    {
      "inputs": [],
      "name": "isVotingOpen",
      "outputs": [
        {
          "internalType": "bool",
          "name": "",
          "type": "bool"
        }
      ],
      "stateMutability": "view",
      "type": "function",
      "constant": true
    }
  ],
  "bytecode": "0x60806040523480156200001157600080fd5b5033600260006101000a81548173ffffffffffffffffffffffffffffffffffffffff021916908373ffffffffffffffffffffffffffffffffffffffff1602179055506001600260146101000a81548160ff02191690831515021790555060006040518060a001604052806040518060400160405280600481526020017f426f6e690000000000000000000000000000000000000000000000000000000081525081526020016040518060400160405280600681526020017f43617375616c000000000000000000000000000000000000000000000000000081525081526020016040518060400160405280600781526020017f4a616b617274610000000000000000000000000000000000000000000000000081525081526020016016815260200160008152509080600181540180825580915050600190039060005260206000209060050201600090919091909150600082015181600001908162000178919062000832565b50602082015181600101908162000190919062000832565b506040820151816002019081620001a8919062000832565b506060820151816003015560808201518160040155505060006040518060a001604052806040518060400160405280600481526020017f43696b6f0000000000000000000000000000000000000000000000000000000081525081526020016040518060400160405280600a81526020017f537472656574776561720000000000000000000000000000000000000000000081525081526020016040518060400160405280600781526020017f42616e64756e6700000000000000000000000000000000000000000000000000815250815260200160188152602001600081525090806001815401808255809150506001900390600052602060002090600502016000909190919091506000820151816000019081620002c9919062000832565b506020820151816001019081620002e1919062000832565b506040820151816002019081620002f9919062000832565b506060820151816003015560808201518160040155505060006040518060a001604052806040518060400160405280600481526020017f446f646f0000000000000000000000000000000000000000000000000000000081525081526020016040518060400160405280600681526020017f4b6f7265616e000000000000000000000000000000000000000000000000000081525081526020016040518060400160405280600881526020017f53757261626179610000000000000000000000000000000000000000000000008152508152602001601581526020016000815250908060018154018082558091505060019003906000526020600020906005020160009091909190915060008201518160000190816200041a919062000832565b50602082015181600101908162000432919062000832565b5060408201518160020190816200044a919062000832565b506060820151816003015560808201518160040155505060006040518060a001604052806040518060400160405280600481526020017f456368610000000000000000000000000000000000000000000000000000000081525081526020016040518060400160405280600481526020017f436869630000000000000000000000000000000000000000000000000000000081525081526020016040518060400160405280600a81526020017f596f6779616b61727461000000000000000000000000000000000000000000008152508152602001601781526020016000815250908060018154018082558091505060019003906000526020600020906005020160009091909190915060008201518160000190816200056b919062000832565b50602082015181600101908162000583919062000832565b5060408201518160020190816200059b919062000832565b506060820151816003015560808201518160040155505062000919565b600081519050919050565b7f4e487b7100000000000000000000000000000000000000000000000000000000600052604160045260246000fd5b7f4e487b7100000000000000000000000000000000000000000000000000000000600052602260045260246000fd5b600060028204905060018216806200063a57607f821691505b60208210810362000650576200064f620005f2565b5b50919050565b60008190508160005260206000209050919050565b60006020601f8301049050919050565b600082821b905092915050565b600060088302620006ba7fffffffffffffffffffffffffffffffffffffffffffffffffffffffffffffffff826200067b565b620006c686836200067b565b95508019841693508086168417925050509392505050565b6000819050919050565b6000819050919050565b6000620007136200070d6200070784620006de565b620006e8565b620006de565b9050919050565b6000819050919050565b6200072f83620006f2565b620007476200073e826200071a565b84845462000688565b825550505050565b600090565b6200075e6200074f565b6200076b81848462000724565b505050565b5b8181101562000793576200078760008262000754565b60018101905062000771565b5050565b601f821115620007e257620007ac8162000656565b620007b7846200066b565b81016020851015620007c7578190505b620007df620007d6856200066b565b83018262000770565b50505b505050565b600082821c905092915050565b60006200080760001984600802620007e7565b1980831691505092915050565b6000620008228383620007f4565b9150826002028217905092915050565b6200083d82620005b8565b67ffffffffffffffff811115620008595762000858620005c3565b5b62000865825462000621565b6200087282828562000797565b600060209050601f831160018114620008aa576000841562000895578287015190505b620008a1858262000814565b86555062000911565b601f198416620008ba8662000656565b60005b82811015620008e457848901518255600182019150602085019450602081019050620008bd565b8683101562000904578489015162000900601f891682620007f4565b8355505b6001600288020188555050505b505050505050565b61116580620009296000396000f3fe60806040526004361061008a5760003560e01c80635ac2bb6e116100595780635ac2bb6e146101715780638da5cb5b1461019a578063a90cc445146101c5578063a95824b4146101f0578063fa7f1bae1461021b57610091565b80630121b93f1461009657806309eef43e146100b25780631b9db2ef146100ef57806335c1d3491461013057610091565b3661009157005b600080fd5b6100b060048036038101906100ab9190610aa4565b610246565b005b3480156100be57600080fd5b506100d960048036038101906100d49190610b2f565b610449565b6040516100e69190610b77565b60405180910390f35b3480156100fb57600080fd5b5061011660048036038101906101119190610aa4565b610469565b604051610127959493929190610c31565b60405180910390f35b34801561013c57600080fd5b5061015760048036038101906101529190610aa4565b610698565b604051610168959493929190610c31565b60405180910390f35b34801561017d57600080fd5b5061019860048036038101906101939190610cd7565b610876565b005b3480156101a657600080fd5b506101af610a0d565b6040516101bc9190610d13565b60405180910390f35b3480156101d157600080fd5b506101da610a33565b6040516101e79190610d2e565b60405180910390f35b3480156101fc57600080fd5b50610205610a3f565b6040516102129190610b77565b60405180910390f35b34801561022757600080fd5b50610230610a52565b60405161023d9190610b77565b60405180910390f35b600260149054906101000a900460ff16610295576040517f08c379a000000000000000000000000000000000000000000000000000000000815260040161028c90610d95565b60405180910390fd5b600160003373ffffffffffffffffffffffffffffffffffffffff1673ffffffffffffffffffffffffffffffffffffffff16815260200190815260200160002060009054906101000a900460ff1615610322576040517f08c379a000000000000000000000000000000000000000000000000000000000815260040161031990610e01565b60405180910390fd5b662386f26fc10000341461036b576040517f08c379a000000000000000000000000000000000000000000000000000000000815260040161036290610e6d565b60405180910390fd5b60008054905081106103b2576040517f08c379a00000000000000000000000000000000000000000000000000000000081526004016103a990610ed9565b60405180910390fd5b6001600082815481106103c8576103c7610ef9565b5b906000526020600020906005020160040160008282546103e89190610f57565b9250508190555060018060003373ffffffffffffffffffffffffffffffffffffffff1673ffffffffffffffffffffffffffffffffffffffff16815260200190815260200160002060006101000a81548160ff02191690831515021790555050565b60016020528060005260406000206000915054906101000a900460ff1681565b6060806060600080600080878154811061048657610485610ef9565b5b90600052602060002090600502016040518060a00160405290816000820180546104af90610fba565b80601f01602080910402602001604051908101604052809291908181526020018280546104db90610fba565b80156105285780601f106104fd57610100808354040283529160200191610528565b820191906000526020600020905b81548152906001019060200180831161050b57829003601f168201915b5050505050815260200160018201805461054190610fba565b80601f016020809104026020016040519081016040528092919081815260200182805461056d90610fba565b80156105ba5780601f1061058f576101008083540402835291602001916105ba565b820191906000526020600020905b81548152906001019060200180831161059d57829003601f168201915b505050505081526020016002820180546105d390610fba565b80601f01602080910402602001604051908101604052809291908181526020018280546105ff90610fba565b801561064c5780601f106106215761010080835404028352916020019161064c565b820191906000526020600020905b81548152906001019060200180831161062f57829003601f168201915b5050505050815260200160038201548152602001600482015481525050905080600001518160200151826040015183606001518460800151955095509550955095505091939590929450565b600081815481106106a857600080fd5b90600052602060002090600502016000915090508060000180546106cb90610fba565b80601f01602080910402602001604051908101604052809291908181526020018280546106f790610fba565b80156107445780601f1061071957610100808354040283529160200191610744565b820191906000526020600020905b81548152906001019060200180831161072757829003601f168201915b50505050509080600101805461075990610fba565b80601f016020809104026020016040519081016040528092919081815260200182805461078590610fba565b80156107d25780601f106107a7576101008083540402835291602001916107d2565b820191906000526020600020905b8154815290600101906020018083116107b557829003601f168201915b5050505050908060020180546107e790610fba565b80601f016020809104026020016040519081016040528092919081815260200182805461081390610fba565b80156108605780601f1061083557610100808354040283529160200191610860565b820191906000526020600020905b81548152906001019060200180831161084357829003601f168201915b5050505050908060030154908060040154905085565b600260009054906101000a900473ffffffffffffffffffffffffffffffffffffffff1673ffffffffffffffffffffffffffffffffffffffff163373ffffffffffffffffffffffffffffffffffffffff1614610906576040517f08c379a00000000000000000000000000000000000000000000000000000000081526004016108fd90611037565b60405180910390fd5b600260149054906101000a900460ff16610955576040517f08c379a000000000000000000000000000000000000000000000000000000000815260040161094c906110a3565b60405180910390fd5b6000600260146101000a81548160ff021916908315150217905550678ac7230489e800004710156109bb576040517f08c379a00000000000000000000000000000000000000000000000000000000081526004016109b29061110f565b60405180910390fd5b8073ffffffffffffffffffffffffffffffffffffffff166108fc678ac7230489e800009081150290604051600060405180830381858888f19350505050158015610a09573d6000803e3d6000fd5b5050565b600260009054906101000a900473ffffffffffffffffffffffffffffffffffffffff1681565b60008080549050905090565b600260149054906101000a900460ff1681565b6000600260149054906101000a900460ff16905090565b600080fd5b6000819050919050565b610a8181610a6e565b8114610a8c57600080fd5b50565b600081359050610a9e81610a78565b92915050565b600060208284031215610aba57610ab9610a69565b5b6000610ac884828501610a8f565b91505092915050565b600073ffffffffffffffffffffffffffffffffffffffff82169050919050565b6000610afc82610ad1565b9050919050565b610b0c81610af1565b8114610b1757600080fd5b50565b600081359050610b2981610b03565b92915050565b600060208284031215610b4557610b44610a69565b5b6000610b5384828501610b1a565b91505092915050565b60008115159050919050565b610b7181610b5c565b82525050565b6000602082019050610b8c6000830184610b68565b92915050565b600081519050919050565b600082825260208201905092915050565b60005b83811015610bcc578082015181840152602081019050610bb1565b60008484015250505050565b6000601f19601f8301169050919050565b6000610bf482610b92565b610bfe8185610b9d565b9350610c0e818560208601610bae565b610c1781610bd8565b840191505092915050565b610c2b81610a6e565b82525050565b600060a0820190508181036000830152610c4b8188610be9565b90508181036020830152610c5f8187610be9565b90508181036040830152610c738186610be9565b9050610c826060830185610c22565b610c8f6080830184610c22565b9695505050505050565b6000610ca482610ad1565b9050919050565b610cb481610c99565b8114610cbf57600080fd5b50565b600081359050610cd181610cab565b92915050565b600060208284031215610ced57610cec610a69565b5b6000610cfb84828501610cc2565b91505092915050565b610d0d81610af1565b82525050565b6000602082019050610d286000830184610d04565b92915050565b6000602082019050610d436000830184610c22565b92915050565b7f566f74696e6720697320636c6f73656400000000000000000000000000000000600082015250565b6000610d7f601083610b9d565b9150610d8a82610d49565b602082019050919050565b60006020820190508181036000830152610dae81610d72565b9050919050565b7f596f7520616c726561647920766f746564000000000000000000000000000000600082015250565b6000610deb601183610b9d565b9150610df682610db5565b602082019050919050565b60006020820190508181036000830152610e1a81610dde565b9050919050565b7f566f74696e6720636f73747320302e3031204554480000000000000000000000600082015250565b6000610e57601583610b9d565b9150610e6282610e21565b602082019050919050565b60006020820190508181036000830152610e8681610e4a565b9050919050565b7f496e76616c696420696e64657800000000000000000000000000000000000000600082015250565b6000610ec3600d83610b9d565b9150610ece82610e8d565b602082019050919050565b60006020820190508181036000830152610ef281610eb6565b9050919050565b7f4e487b7100000000000000000000000000000000000000000000000000000000600052603260045260246000fd5b7f4e487b7100000000000000000000000000000000000000000000000000000000600052601160045260246000fd5b6000610f6282610a6e565b9150610f6d83610a6e565b9250828201905080821115610f8557610f84610f28565b5b92915050565b7f4e487b7100000000000000000000000000000000000000000000000000000000600052602260045260246000fd5b60006002820490506001821680610fd257607f821691505b602082108103610fe557610fe4610f8b565b5b50919050565b7f4f6e6c79206f776e65722063616e20636c6f736520766f74696e670000000000600082015250565b6000611021601b83610b9d565b915061102c82610feb565b602082019050919050565b6000602082019050818103600083015261105081611014565b9050919050565b7f566f74696e6720616c726561647920636c6f7365640000000000000000000000600082015250565b600061108d601583610b9d565b915061109882611057565b602082019050919050565b600060208201905081810360008301526110bc81611080565b9050919050565b7f496e73756666696369656e742062616c616e6365000000000000000000000000600082015250565b60006110f9601483610b9d565b9150611104826110c3565b602082019050919050565b60006020820190508181036000830152611128816110ec565b905091905056fea26469706673582212200629450ddff821dab7296b82bbcc7fc688f971568d12a36bfea8d6c393eed4e764736f6c63430008110033",
  "immutableReferences": {},
  "source": "// SPDX-License-Identifier: MIT\r\npragma solidity >=0.7.0 <0.9.0;\r\n\r\ncontract FashionVoting {\r\n    struct Participant {\r\n        string name;\r\n        string style;\r\n        string location;\r\n        uint age;\r\n        uint voteCount;\r\n    }\r\n\r\n    Participant[] public participants;\r\n    mapping(address => bool) public hasVoted;\r\n    address public owner;\r\n    bool public votingOpen;\r\n\r\n    constructor() {\r\n        owner = msg.sender;\r\n        votingOpen = true;\r\n\r\n        participants.push(Participant(\"Boni\", \"Casual\", \"Jakarta\", 22, 0));\r\n        participants.push(Participant(\"Ciko\", \"Streetwear\", \"Bandung\", 24, 0));\r\n        participants.push(Participant(\"Dodo\", \"Korean\", \"Surabaya\", 21, 0));\r\n        participants.push(Participant(\"Echa\", \"Chic\", \"Yogyakarta\", 23, 0));\r\n    }\r\n\r\n    function getParticipant(uint index) public view returns (\r\n        string memory, string memory, string memory, uint, uint\r\n    ) {\r\n        Participant memory p = participants[index];\r\n        return (p.name, p.style, p.location, p.age, p.voteCount);\r\n    }\r\n\r\n    function getTotalParticipants() public view returns (uint) {\r\n        return participants.length;\r\n    }\r\n\r\n    function vote(uint index) public payable {\r\n        require(votingOpen, \"Voting is closed\");\r\n        require(!hasVoted[msg.sender], \"You already voted\");\r\n        require(msg.value == 0.01 ether, \"Voting costs 0.01 ETH\");\r\n        require(index < participants.length, \"Invalid index\");\r\n\r\n        participants[index].voteCount += 1;\r\n        hasVoted[msg.sender] = true;\r\n    }\r\n\r\n    function getWinnerIndex() internal view returns (uint) {\r\n        uint highest = 0;\r\n        uint winnerIndex = 0;\r\n        for (uint i = 0; i < participants.length; i++) {\r\n            if (participants[i].voteCount > highest) {\r\n                highest = participants[i].voteCount;\r\n                winnerIndex = i;\r\n            }\r\n        }\r\n        return winnerIndex;\r\n    }\r\n\r\n    function closeVotingAndSendReward(address payable winnerAddress) public {\r\n        require(msg.sender == owner, \"Only owner can close voting\");\r\n        require(votingOpen, \"Voting already closed\");\r\n        votingOpen = false;\r\n\r\n        require(address(this).balance >= 10 ether, \"Insufficient balance\");\r\n        winnerAddress.transfer(10 ether);\r\n    }\r\n\r\n    function isVotingOpen() public view returns (bool) {\r\n        return votingOpen;\r\n    }\r\n\r\n    receive() external payable {}\r\n}\r\n",
  "sourcePath": "C:\\Users\\cassi\\OneDrive\\Documents\\Voting\\contracts\\FashionVoting.sol",
  "compiler": {
    "name": "solc",
    "version": "0.8.17+commit.8df45f5f.Emscripten.clang"
  },
  "schemaVersion": "3.4.16",
  "updatedAt": "2025-06-18T05:03:28.249Z",
  "networkType": "ethereum",
  "devdoc": {
    "kind": "dev",
    "methods": {},
    "version": 1
  },
  "userdoc": {
    "kind": "user",
    "methods": {},
    "version": 1
  }
}