{
  "contractName": "FashionVoting",
  "abi": [
    {
      "inputs": [],
      "stateMutability": "nonpayable",
      "type": "constructor"
    },
    {
      "inputs": [
        {
          "internalType": "address",
          "name": "",
          "type": "address"
        }
      ],
      "name": "hasVoted",
      "outputs": [
        {
          "internalType": "bool",
          "name": "",
          "type": "bool"
        }
      ],
      "stateMutability": "view",
      "type": "function",
      "constant": true
    },
    {
      "inputs": [],
      "name": "owner",
      "outputs": [
        {
          "internalType": "address",
          "name": "",
          "type": "address"
        }
      ],
      "stateMutability": "view",
      "type": "function",
      "constant": true
    },
    {
      "inputs": [
        {
          "internalType": "uint256",
          "name": "",
          "type": "uint256"
        }
      ],
      "name": "participants",
      "outputs": [
        {
          "internalType": "string",
          "name": "name",
          "type": "string"
        },
        {
          "internalType": "string",
          "name": "style",
          "type": "string"
        },
        {
          "internalType": "string",
          "name": "location",
          "type": "string"
        },
        {
          "internalType": "uint256",
          "name": "age",
          "type": "uint256"
        },
        {
          "internalType": "uint256",
          "name": "voteCount",
          "type": "uint256"
        }
      ],
      "stateMutability": "view",
      "type": "function",
      "constant": true
    },
    {
      "inputs": [
        {
          "internalType": "uint256",
          "name": "index",
          "type": "uint256"
        }
      ],
      "name": "getParticipant",
      "outputs": [
        {
          "internalType": "string",
          "name": "name",
          "type": "string"
        },
        {
          "internalType": "string",
          "name": "style",
          "type": "string"
        },
        {
          "internalType": "string",
          "name": "location",
          "type": "string"
        },
        {
          "internalType": "uint256",
          "name": "age",
          "type": "uint256"
        },
        {
          "internalType": "uint256",
          "name": "voteCount",
          "type": "uint256"
        }
      ],
      "stateMutability": "view",
      "type": "function",
      "constant": true
    },
    {
      "inputs": [],
      "name": "getTotalParticipants",
      "outputs": [
        {
          "internalType": "uint256",
          "name": "",
          "type": "uint256"
        }
      ],
      "stateMutability": "view",
      "type": "function",
      "constant": true
    },
    {
      "inputs": [
        {
          "internalType": "uint256",
          "name": "index",
          "type": "uint256"
        }
      ],
      "name": "vote",
      "outputs": [],
      "stateMutability": "payable",
      "type": "function",
      "payable": true
    },
    {
      "inputs": [],
      "name": "getWinner",
      "outputs": [
        {
          "internalType": "string",
          "name": "name",
          "type": "string"
        },
        {
          "internalType": "uint256",
          "name": "voteCount",
          "type": "uint256"
        }
      ],
      "stateMutability": "view",
      "type": "function",
      "constant": true
    },
    {
      "inputs": [],
      "name": "sendRewardToWinner",
      "outputs": [],
      "stateMutability": "nonpayable",
      "type": "function"
    }
  ],
  "bytecode": "0x60806040523480156200001157600080fd5b5033600260006101000a81548173ffffffffffffffffffffffffffffffffffffffff021916908373ffffffffffffffffffffffffffffffffffffffff16021790555060006040518060a001604052806040518060400160405280600481526020017f426f6e690000000000000000000000000000000000000000000000000000000081525081526020016040518060400160405280600681526020017f43617375616c000000000000000000000000000000000000000000000000000081525081526020016040518060400160405280600781526020017f4a616b61727461000000000000000000000000000000000000000000000000008152508152602001601681526020016000815250908060018154018082558091505060019003906000526020600020906005020160009091909190915060008201518160000190816200015d919062000817565b50602082015181600101908162000175919062000817565b5060408201518160020190816200018d919062000817565b506060820151816003015560808201518160040155505060006040518060a001604052806040518060400160405280600481526020017f43696b6f0000000000000000000000000000000000000000000000000000000081525081526020016040518060400160405280600a81526020017f537472656574776561720000000000000000000000000000000000000000000081525081526020016040518060400160405280600781526020017f42616e64756e6700000000000000000000000000000000000000000000000000815250815260200160188152602001600081525090806001815401808255809150506001900390600052602060002090600502016000909190919091506000820151816000019081620002ae919062000817565b506020820151816001019081620002c6919062000817565b506040820151816002019081620002de919062000817565b506060820151816003015560808201518160040155505060006040518060a001604052806040518060400160405280600481526020017f446f646f0000000000000000000000000000000000000000000000000000000081525081526020016040518060400160405280600681526020017f4b6f7265616e000000000000000000000000000000000000000000000000000081525081526020016040518060400160405280600881526020017f5375726162617961000000000000000000000000000000000000000000000000815250815260200160158152602001600081525090806001815401808255809150506001900390600052602060002090600502016000909190919091506000820151816000019081620003ff919062000817565b50602082015181600101908162000417919062000817565b5060408201518160020190816200042f919062000817565b506060820151816003015560808201518160040155505060006040518060a001604052806040518060400160405280600481526020017f456368610000000000000000000000000000000000000000000000000000000081525081526020016040518060400160405280600481526020017f436869630000000000000000000000000000000000000000000000000000000081525081526020016040518060400160405280600a81526020017f596f6779616b617274610000000000000000000000000000000000000000000081525081526020016017815260200160008152509080600181540180825580915050600190039060005260206000209060050201600090919091909150600082015181600001908162000550919062000817565b50602082015181600101908162000568919062000817565b50604082015181600201908162000580919062000817565b5060608201518160030155608082015181600401555050620008fe565b600081519050919050565b7f4e487b7100000000000000000000000000000000000000000000000000000000600052604160045260246000fd5b7f4e487b7100000000000000000000000000000000000000000000000000000000600052602260045260246000fd5b600060028204905060018216806200061f57607f821691505b602082108103620006355762000634620005d7565b5b50919050565b60008190508160005260206000209050919050565b60006020601f8301049050919050565b600082821b905092915050565b6000600883026200069f7fffffffffffffffffffffffffffffffffffffffffffffffffffffffffffffffff8262000660565b620006ab868362000660565b95508019841693508086168417925050509392505050565b6000819050919050565b6000819050919050565b6000620006f8620006f2620006ec84620006c3565b620006cd565b620006c3565b9050919050565b6000819050919050565b6200071483620006d7565b6200072c6200072382620006ff565b8484546200066d565b825550505050565b600090565b6200074362000734565b6200075081848462000709565b505050565b5b8181101562000778576200076c60008262000739565b60018101905062000756565b5050565b601f821115620007c75762000791816200063b565b6200079c8462000650565b81016020851015620007ac578190505b620007c4620007bb8562000650565b83018262000755565b50505b505050565b600082821c905092915050565b6000620007ec60001984600802620007cc565b1980831691505092915050565b6000620008078383620007d9565b9150826002028217905092915050565b62000822826200059d565b67ffffffffffffffff8111156200083e576200083d620005a8565b5b6200084a825462000606565b620008578282856200077c565b600060209050601f8311600181146200088f57600084156200087a578287015190505b620008868582620007f9565b865550620008f6565b601f1984166200089f866200063b565b60005b82811015620008c957848901518255600182019150602085019450602081019050620008a2565b86831015620008e95784890151620008e5601f891682620007d9565b8355505b6001600288020188555050505b505050505050565b611163806200090e6000396000f3fe60806040526004361061007b5760003560e01c806335c1d3491161004e57806335c1d349146101315780638da5cb5b146101725780638e7ea5b21461019d578063a90cc445146101c95761007b565b80630121b93f1461008057806309eef43e1461009c5780631b9db2ef146100d957806326e0247b1461011a575b600080fd5b61009a60048036038101906100959190610bd9565b6101f4565b005b3480156100a857600080fd5b506100c360048036038101906100be9190610c64565b6103a8565b6040516100d09190610cac565b60405180910390f35b3480156100e557600080fd5b5061010060048036038101906100fb9190610bd9565b6103c8565b604051610111959493929190610d66565b60405180910390f35b34801561012657600080fd5b5061012f6105f7565b005b34801561013d57600080fd5b5061015860048036038101906101539190610bd9565b6106f8565b604051610169959493929190610d66565b60405180910390f35b34801561017e57600080fd5b506101876108d6565b6040516101949190610ddd565b60405180910390f35b3480156101a957600080fd5b506101b26108fc565b6040516101c0929190610df8565b60405180910390f35b3480156101d557600080fd5b506101de610b92565b6040516101eb9190610e28565b60405180910390f35b600160003373ffffffffffffffffffffffffffffffffffffffff1673ffffffffffffffffffffffffffffffffffffffff16815260200190815260200160002060009054906101000a900460ff1615610281576040517f08c379a000000000000000000000000000000000000000000000000000000000815260040161027890610e8f565b60405180910390fd5b662386f26fc1000034146102ca576040517f08c379a00000000000000000000000000000000000000000000000000000000081526004016102c190610efb565b60405180910390fd5b6000805490508110610311576040517f08c379a000000000000000000000000000000000000000000000000000000000815260040161030890610f67565b60405180910390fd5b60016000828154811061032757610326610f87565b5b906000526020600020906005020160040160008282546103479190610fe5565b9250508190555060018060003373ffffffffffffffffffffffffffffffffffffffff1673ffffffffffffffffffffffffffffffffffffffff16815260200190815260200160002060006101000a81548160ff02191690831515021790555050565b60016020528060005260406000206000915054906101000a900460ff1681565b606080606060008060008087815481106103e5576103e4610f87565b5b90600052602060002090600502016040518060a001604052908160008201805461040e90611048565b80601f016020809104026020016040519081016040528092919081815260200182805461043a90611048565b80156104875780601f1061045c57610100808354040283529160200191610487565b820191906000526020600020905b81548152906001019060200180831161046a57829003601f168201915b505050505081526020016001820180546104a090611048565b80601f01602080910402602001604051908101604052809291908181526020018280546104cc90611048565b80156105195780601f106104ee57610100808354040283529160200191610519565b820191906000526020600020905b8154815290600101906020018083116104fc57829003601f168201915b5050505050815260200160028201805461053290611048565b80601f016020809104026020016040519081016040528092919081815260200182805461055e90611048565b80156105ab5780601f10610580576101008083540402835291602001916105ab565b820191906000526020600020905b81548152906001019060200180831161058e57829003601f168201915b5050505050815260200160038201548152602001600482015481525050905080600001518160200151826040015183606001518460800151955095509550955095505091939590929450565b600260009054906101000a900473ffffffffffffffffffffffffffffffffffffffff1673ffffffffffffffffffffffffffffffffffffffff163373ffffffffffffffffffffffffffffffffffffffff1614610687576040517f08c379a000000000000000000000000000000000000000000000000000000000815260040161067e906110c5565b60405180910390fd5b6000600260009054906101000a900473ffffffffffffffffffffffffffffffffffffffff1690508073ffffffffffffffffffffffffffffffffffffffff166108fc479081150290604051600060405180830381858888f193505050501580156106f4573d6000803e3d6000fd5b5050565b6000818154811061070857600080fd5b906000526020600020906005020160009150905080600001805461072b90611048565b80601f016020809104026020016040519081016040528092919081815260200182805461075790611048565b80156107a45780601f10610779576101008083540402835291602001916107a4565b820191906000526020600020905b81548152906001019060200180831161078757829003601f168201915b5050505050908060010180546107b990611048565b80601f01602080910402602001604051908101604052809291908181526020018280546107e590611048565b80156108325780601f1061080757610100808354040283529160200191610832565b820191906000526020600020905b81548152906001019060200180831161081557829003601f168201915b50505050509080600201805461084790611048565b80601f016020809104026020016040519081016040528092919081815260200182805461087390611048565b80156108c05780601f10610895576101008083540402835291602001916108c0565b820191906000526020600020905b8154815290600101906020018083116108a357829003601f168201915b5050505050908060030154908060040154905085565b600260009054906101000a900473ffffffffffffffffffffffffffffffffffffffff1681565b6060600080600090506000805b60008054905081101561098257826000828154811061092b5761092a610f87565b5b906000526020600020906005020160040154111561096f576000818154811061095757610956610f87565b5b90600052602060002090600502016004015492508091505b808061097a906110e5565b915050610909565b50600080828154811061099857610997610f87565b5b90600052602060002090600502016040518060a00160405290816000820180546109c190611048565b80601f01602080910402602001604051908101604052809291908181526020018280546109ed90611048565b8015610a3a5780601f10610a0f57610100808354040283529160200191610a3a565b820191906000526020600020905b815481529060010190602001808311610a1d57829003601f168201915b50505050508152602001600182018054610a5390611048565b80601f0160208091040260200160405190810160405280929190818152602001828054610a7f90611048565b8015610acc5780601f10610aa157610100808354040283529160200191610acc565b820191906000526020600020905b815481529060010190602001808311610aaf57829003601f168201915b50505050508152602001600282018054610ae590611048565b80601f0160208091040260200160405190810160405280929190818152602001828054610b1190611048565b8015610b5e5780601f10610b3357610100808354040283529160200191610b5e565b820191906000526020600020905b815481529060010190602001808311610b4157829003601f168201915b5050505050815260200160038201548152602001600482015481525050905080600001518160800151945094505050509091565b60008080549050905090565b600080fd5b6000819050919050565b610bb681610ba3565b8114610bc157600080fd5b50565b600081359050610bd381610bad565b92915050565b600060208284031215610bef57610bee610b9e565b5b6000610bfd84828501610bc4565b91505092915050565b600073ffffffffffffffffffffffffffffffffffffffff82169050919050565b6000610c3182610c06565b9050919050565b610c4181610c26565b8114610c4c57600080fd5b50565b600081359050610c5e81610c38565b92915050565b600060208284031215610c7a57610c79610b9e565b5b6000610c8884828501610c4f565b91505092915050565b60008115159050919050565b610ca681610c91565b82525050565b6000602082019050610cc16000830184610c9d565b92915050565b600081519050919050565b600082825260208201905092915050565b60005b83811015610d01578082015181840152602081019050610ce6565b60008484015250505050565b6000601f19601f8301169050919050565b6000610d2982610cc7565b610d338185610cd2565b9350610d43818560208601610ce3565b610d4c81610d0d565b840191505092915050565b610d6081610ba3565b82525050565b600060a0820190508181036000830152610d808188610d1e565b90508181036020830152610d948187610d1e565b90508181036040830152610da88186610d1e565b9050610db76060830185610d57565b610dc46080830184610d57565b9695505050505050565b610dd781610c26565b82525050565b6000602082019050610df26000830184610dce565b92915050565b60006040820190508181036000830152610e128185610d1e565b9050610e216020830184610d57565b9392505050565b6000602082019050610e3d6000830184610d57565b92915050565b7f596f7520616c726561647920766f746564000000000000000000000000000000600082015250565b6000610e79601183610cd2565b9150610e8482610e43565b602082019050919050565b60006020820190508181036000830152610ea881610e6c565b9050919050565b7f566f74696e6720636f73747320302e3031204554480000000000000000000000600082015250565b6000610ee5601583610cd2565b9150610ef082610eaf565b602082019050919050565b60006020820190508181036000830152610f1481610ed8565b9050919050565b7f496e76616c696420696e64657800000000000000000000000000000000000000600082015250565b6000610f51600d83610cd2565b9150610f5c82610f1b565b602082019050919050565b60006020820190508181036000830152610f8081610f44565b9050919050565b7f4e487b7100000000000000000000000000000000000000000000000000000000600052603260045260246000fd5b7f4e487b7100000000000000000000000000000000000000000000000000000000600052601160045260246000fd5b6000610ff082610ba3565b9150610ffb83610ba3565b925082820190508082111561101357611012610fb6565b5b92915050565b7f4e487b7100000000000000000000000000000000000000000000000000000000600052602260045260246000fd5b6000600282049050600182168061106057607f821691505b60208210810361107357611072611019565b5b50919050565b7f4f6e6c79206f776e65722063616e2073656e6420726577617264000000000000600082015250565b60006110af601a83610cd2565b91506110ba82611079565b602082019050919050565b600060208201905081810360008301526110de816110a2565b9050919050565b60006110f082610ba3565b91507fffffffffffffffffffffffffffffffffffffffffffffffffffffffffffffffff820361112257611121610fb6565b5b60018201905091905056fea2646970667358221220b75e8c40b1fd5340d9f66a9d5588c7899b85ff8453e5667f96a2a65728f6c07d64736f6c63430008110033",
  "immutableReferences": {},
  "source": "// SPDX-License-Identifier: MIT\r\npragma solidity >=0.7.0 <0.9.0;\r\n\r\ncontract FashionVoting {\r\n    struct Participant {\r\n        string name;\r\n        string style;\r\n        string location;\r\n        uint age;\r\n        uint voteCount;\r\n    }\r\n\r\n    Participant[] public participants;\r\n    mapping(address => bool) public hasVoted;\r\n    address public owner;\r\n\r\n    constructor() {\r\n        owner = msg.sender;\r\n\r\n        participants.push(Participant(\"Boni\", \"Casual\", \"Jakarta\", 22, 0));\r\n        participants.push(Participant(\"Ciko\", \"Streetwear\", \"Bandung\", 24, 0));\r\n        participants.push(Participant(\"Dodo\", \"Korean\", \"Surabaya\", 21, 0));\r\n        participants.push(Participant(\"Echa\", \"Chic\", \"Yogyakarta\", 23, 0));\r\n    }\r\n\r\n    function getParticipant(uint index) public view returns (\r\n        string memory name,\r\n        string memory style,\r\n        string memory location,\r\n        uint age,\r\n        uint voteCount\r\n    ) {\r\n        Participant memory p = participants[index];\r\n        return (p.name, p.style, p.location, p.age, p.voteCount);\r\n    }\r\n\r\n    function getTotalParticipants() public view returns (uint) {\r\n        return participants.length;\r\n    }\r\n\r\n    function vote(uint index) public payable {\r\n        require(!hasVoted[msg.sender], \"You already voted\");\r\n        require(msg.value == 0.01 ether, \"Voting costs 0.01 ETH\");\r\n        require(index < participants.length, \"Invalid index\");\r\n\r\n        participants[index].voteCount += 1;\r\n        hasVoted[msg.sender] = true;\r\n    }\r\n\r\n    function getWinner() public view returns (string memory name, uint voteCount) {\r\n        uint highest = 0;\r\n        uint winnerIndex = 0;\r\n\r\n        for (uint i = 0; i < participants.length; i++) {\r\n            if (participants[i].voteCount > highest) {\r\n                highest = participants[i].voteCount;\r\n                winnerIndex = i;\r\n            }\r\n        }\r\n\r\n        Participant memory winner = participants[winnerIndex];\r\n        return (winner.name, winner.voteCount);\r\n    }\r\n\r\n    function sendRewardToWinner() public {\r\n        require(msg.sender == owner, \"Only owner can send reward\");\r\n\r\n        address payable winnerAddress = payable(owner); // dummy, update if ada relasi\r\n\r\n        winnerAddress.transfer(address(this).balance);\r\n    }\r\n}\r\n",
  "sourcePath": "C:\\Users\\cassi\\OneDrive\\Documents\\Voting\\contracts\\FashionVoting.sol",
  "compiler": {
    "name": "solc",
    "version": "0.8.17+commit.8df45f5f.Emscripten.clang"
  },
  "schemaVersion": "3.4.16",
  "updatedAt": "2025-06-17T08:41:00.301Z",
  "networkType": "ethereum",
  "devdoc": {
    "kind": "dev",
    "methods": {},
    "version": 1
  },
  "userdoc": {
    "kind": "user",
    "methods": {},
    "version": 1
  }
}